{
  "_format": "hh-sol-artifact-1",
  "contractName": "WavePortal",
  "sourceName": "contracts/WavePortal.sol",
  "abi": [
    {
      "inputs": [],
      "stateMutability": "payable",
      "type": "constructor"
    },
    {
      "anonymous": false,
      "inputs": [
        {
          "indexed": true,
          "internalType": "address",
          "name": "from",
          "type": "address"
        },
        {
          "indexed": false,
          "internalType": "uint256",
          "name": "timestamp",
          "type": "uint256"
        },
        {
          "indexed": false,
          "internalType": "string",
          "name": "message",
          "type": "string"
        }
      ],
      "name": "NewWave",
      "type": "event"
    },
    {
      "inputs": [],
      "name": "getAllWaves",
      "outputs": [
        {
          "components": [
            {
              "internalType": "address",
              "name": "waver",
              "type": "address"
            },
            {
              "internalType": "string",
              "name": "message",
              "type": "string"
            },
            {
              "internalType": "uint256",
              "name": "timestamp",
              "type": "uint256"
            }
          ],
          "internalType": "struct WavePortal.Wave[]",
          "name": "",
          "type": "tuple[]"
        }
      ],
      "stateMutability": "view",
      "type": "function"
    },
    {
      "inputs": [],
      "name": "getTotalWaves",
      "outputs": [
        {
          "internalType": "uint256",
          "name": "",
          "type": "uint256"
        }
      ],
      "stateMutability": "view",
      "type": "function"
    },
    {
      "inputs": [],
      "name": "getUserWaves",
      "outputs": [
        {
          "internalType": "uint256",
          "name": "",
          "type": "uint256"
        }
      ],
      "stateMutability": "view",
      "type": "function"
    },
    {
      "inputs": [
        {
          "internalType": "address",
          "name": "",
          "type": "address"
        }
      ],
      "name": "lastWavedAt",
      "outputs": [
        {
          "internalType": "uint256",
          "name": "",
          "type": "uint256"
        }
      ],
      "stateMutability": "view",
      "type": "function"
    },
    {
      "inputs": [
        {
          "internalType": "address",
          "name": "",
          "type": "address"
        }
      ],
      "name": "userWaves",
      "outputs": [
        {
          "internalType": "uint256",
          "name": "",
          "type": "uint256"
        }
      ],
      "stateMutability": "view",
      "type": "function"
    },
    {
      "inputs": [
        {
          "internalType": "string",
          "name": "_message",
          "type": "string"
        }
      ],
      "name": "wave",
      "outputs": [],
      "stateMutability": "nonpayable",
      "type": "function"
    }
  ],
  "bytecode": "0x60806040526200004f6040518060400160405280601981526020017f4920414d20534d41525420434f4e54524143542e20504f472e000000000000008152506200005560201b620008071760201c565b620001e9565b620000f5816040516024016200006c919062000162565b6040516020818303038152906040527f41304fac000000000000000000000000000000000000000000000000000000007bffffffffffffffffffffffffffffffffffffffffffffffffffffffff19166020820180517bffffffffffffffffffffffffffffffffffffffffffffffffffffffff8381831617835250505050620000f860201b60201c565b50565b60008151905060006a636f6e736f6c652e6c6f679050602083016000808483855afa5050505050565b60006200012e8262000186565b6200013a818562000191565b93506200014c818560208601620001a2565b6200015781620001d8565b840191505092915050565b600060208201905081810360008301526200017e818462000121565b905092915050565b600081519050919050565b600082825260208201905092915050565b60005b83811015620001c2578082015181840152602081019050620001a5565b83811115620001d2576000848401525b50505050565b6000601f19601f8301169050919050565b61141580620001f96000396000f3fe608060405234801561001057600080fd5b50600436106100625760003560e01c80631e5c602314610067578063449d46c0146100975780634ad88b38146100b35780639a2cdc08146100d1578063a42a4663146100ef578063bd43a9081461011f575b600080fd5b610081600480360381019061007c9190610bc0565b61013d565b60405161008e9190610f94565b60405180910390f35b6100b160048036038101906100ac9190610be9565b610155565b005b6100bb6105aa565b6040516100c89190610f94565b60405180910390f35b6100d9610653565b6040516100e69190610f94565b60405180910390f35b61010960048036038101906101049190610bc0565b61069e565b6040516101169190610f94565b60405180910390f35b6101276106b6565b6040516101349190610e52565b60405180910390f35b60026020528060005260406000206000915090505481565b42610384600360003373ffffffffffffffffffffffffffffffffffffffff1673ffffffffffffffffffffffffffffffffffffffff168152602001908152602001600020546101a391906110a6565b106101e3576040517f08c379a00000000000000000000000000000000000000000000000000000000081526004016101da90610f74565b60405180910390fd5b42600360003373ffffffffffffffffffffffffffffffffffffffff1673ffffffffffffffffffffffffffffffffffffffff16815260200190815260200160002081905550600180600082825461023991906110a6565b925050819055506001600260003373ffffffffffffffffffffffffffffffffffffffff1673ffffffffffffffffffffffffffffffffffffffff168152602001908152602001600020600082825461029091906110a6565b925050819055506102d66040518060400160405280600d81526020017f2573206861732077617665642100000000000000000000000000000000000000815250336108a0565b600460405180606001604052803373ffffffffffffffffffffffffffffffffffffffff16815260200183815260200142815250908060018154018082558091505060019003906000526020600020906003020160009091909190915060008201518160000160006101000a81548173ffffffffffffffffffffffffffffffffffffffff021916908373ffffffffffffffffffffffffffffffffffffffff1602179055506020820151816001019080519060200190610395929190610aa0565b506040820151816002015550506000606460005442446103b591906110a6565b6103bf91906110a6565b6103c991906111dd565b905061040a6040518060400160405280601681526020017f52616e646f6d20232067656e6572617465643a202573000000000000000000008152508261093c565b806000819055506032811015610556576104596040518060400160405280600781526020017f257320776f6e2100000000000000000000000000000000000000000000000000815250336108a0565b6000655af3107a40009050478111156104a7576040517f08c379a000000000000000000000000000000000000000000000000000000000815260040161049e90610f34565b60405180910390fd5b60003373ffffffffffffffffffffffffffffffffffffffff16826040516104cd90610e3d565b60006040518083038185875af1925050503d806000811461050a576040519150601f19603f3d011682016040523d82523d6000602084013e61050f565b606091505b5050905080610553576040517f08c379a000000000000000000000000000000000000000000000000000000000815260040161054a90610f54565b60405180910390fd5b50505b3373ffffffffffffffffffffffffffffffffffffffff167f5f7e16dc676677766a70e9c5628aa6c54ddb8b6e5188e2ae1e1f17f1ffbea716428460405161059e929190610faf565b60405180910390a25050565b600061060e6040518060600160405280602381526020016113bd6023913933600260003373ffffffffffffffffffffffffffffffffffffffff1673ffffffffffffffffffffffffffffffffffffffff168152602001908152602001600020546109d8565b600260003373ffffffffffffffffffffffffffffffffffffffff1673ffffffffffffffffffffffffffffffffffffffff16815260200190815260200160002054905090565b60006106966040518060400160405280601781526020017f5765206861766520256420746f74616c2077617665732100000000000000000081525060015461093c565b600154905090565b60036020528060005260406000206000915090505481565b60606004805480602002602001604051908101604052809291908181526020016000905b828210156107fe57838290600052602060002090600302016040518060600160405290816000820160009054906101000a900473ffffffffffffffffffffffffffffffffffffffff1673ffffffffffffffffffffffffffffffffffffffff1673ffffffffffffffffffffffffffffffffffffffff1681526020016001820180546107639061117a565b80601f016020809104026020016040519081016040528092919081815260200182805461078f9061117a565b80156107dc5780601f106107b1576101008083540402835291602001916107dc565b820191906000526020600020905b8154815290600101906020018083116107bf57829003601f168201915b50505050508152602001600282015481525050815260200190600101906106da565b50505050905090565b61089d8160405160240161081b9190610e74565b6040516020818303038152906040527f41304fac000000000000000000000000000000000000000000000000000000007bffffffffffffffffffffffffffffffffffffffffffffffffffffffff19166020820180517bffffffffffffffffffffffffffffffffffffffffffffffffffffffff8381831617835250505050610a77565b50565b61093882826040516024016108b6929190610e96565b6040516020818303038152906040527f319af333000000000000000000000000000000000000000000000000000000007bffffffffffffffffffffffffffffffffffffffffffffffffffffffff19166020820180517bffffffffffffffffffffffffffffffffffffffffffffffffffffffff8381831617835250505050610a77565b5050565b6109d48282604051602401610952929190610f04565b6040516020818303038152906040527f9710a9d0000000000000000000000000000000000000000000000000000000007bffffffffffffffffffffffffffffffffffffffffffffffffffffffff19166020820180517bffffffffffffffffffffffffffffffffffffffffffffffffffffffff8381831617835250505050610a77565b5050565b610a728383836040516024016109f093929190610ec6565b6040516020818303038152906040527f07c81217000000000000000000000000000000000000000000000000000000007bffffffffffffffffffffffffffffffffffffffffffffffffffffffff19166020820180517bffffffffffffffffffffffffffffffffffffffffffffffffffffffff8381831617835250505050610a77565b505050565b60008151905060006a636f6e736f6c652e6c6f679050602083016000808483855afa5050505050565b828054610aac9061117a565b90600052602060002090601f016020900481019282610ace5760008555610b15565b82601f10610ae757805160ff1916838001178555610b15565b82800160010185558215610b15579182015b82811115610b14578251825591602001919060010190610af9565b5b509050610b229190610b26565b5090565b5b80821115610b3f576000816000905550600101610b27565b5090565b6000610b56610b5184611004565b610fdf565b905082815260208101848484011115610b6e57600080fd5b610b79848285611138565b509392505050565b600081359050610b90816113a5565b92915050565b600082601f830112610ba757600080fd5b8135610bb7848260208601610b43565b91505092915050565b600060208284031215610bd257600080fd5b6000610be084828501610b81565b91505092915050565b600060208284031215610bfb57600080fd5b600082013567ffffffffffffffff811115610c1557600080fd5b610c2184828501610b96565b91505092915050565b6000610c368383610dcf565b905092915050565b610c47816110fc565b82525050565b610c56816110fc565b82525050565b6000610c6782611045565b610c718185611068565b935083602082028501610c8385611035565b8060005b85811015610cbf5784840389528151610ca08582610c2a565b9450610cab8361105b565b925060208a01995050600181019050610c87565b50829750879550505050505092915050565b6000610cdc82611050565b610ce68185611084565b9350610cf6818560208601611147565b610cff816112ca565b840191505092915050565b6000610d1582611050565b610d1f8185611095565b9350610d2f818560208601611147565b610d38816112ca565b840191505092915050565b6000610d50603483611095565b9150610d5b826112db565b604082019050919050565b6000610d73602783611095565b9150610d7e8261132a565b604082019050919050565b6000610d96600083611079565b9150610da182611379565b600082019050919050565b6000610db9600883611095565b9150610dc48261137c565b602082019050919050565b6000606083016000830151610de76000860182610c3e565b5060208301518482036020860152610dff8282610cd1565b9150506040830151610e146040860182610e1f565b508091505092915050565b610e288161112e565b82525050565b610e378161112e565b82525050565b6000610e4882610d89565b9150819050919050565b60006020820190508181036000830152610e6c8184610c5c565b905092915050565b60006020820190508181036000830152610e8e8184610d0a565b905092915050565b60006040820190508181036000830152610eb08185610d0a565b9050610ebf6020830184610c4d565b9392505050565b60006060820190508181036000830152610ee08186610d0a565b9050610eef6020830185610c4d565b610efc6040830184610e2e565b949350505050565b60006040820190508181036000830152610f1e8185610d0a565b9050610f2d6020830184610e2e565b9392505050565b60006020820190508181036000830152610f4d81610d43565b9050919050565b60006020820190508181036000830152610f6d81610d66565b9050919050565b60006020820190508181036000830152610f8d81610dac565b9050919050565b6000602082019050610fa96000830184610e2e565b92915050565b6000604082019050610fc46000830185610e2e565b8181036020830152610fd68184610d0a565b90509392505050565b6000610fe9610ffa565b9050610ff582826111ac565b919050565b6000604051905090565b600067ffffffffffffffff82111561101f5761101e61129b565b5b611028826112ca565b9050602081019050919050565b6000819050602082019050919050565b600081519050919050565b600081519050919050565b6000602082019050919050565b600082825260208201905092915050565b600081905092915050565b600082825260208201905092915050565b600082825260208201905092915050565b60006110b18261112e565b91506110bc8361112e565b9250827fffffffffffffffffffffffffffffffffffffffffffffffffffffffffffffffff038211156110f1576110f061120e565b5b828201905092915050565b60006111078261110e565b9050919050565b600073ffffffffffffffffffffffffffffffffffffffff82169050919050565b6000819050919050565b82818337600083830152505050565b60005b8381101561116557808201518184015260208101905061114a565b83811115611174576000848401525b50505050565b6000600282049050600182168061119257607f821691505b602082108114156111a6576111a561126c565b5b50919050565b6111b5826112ca565b810181811067ffffffffffffffff821117156111d4576111d361129b565b5b80604052505050565b60006111e88261112e565b91506111f38361112e565b9250826112035761120261123d565b5b828206905092915050565b7f4e487b7100000000000000000000000000000000000000000000000000000000600052601160045260246000fd5b7f4e487b7100000000000000000000000000000000000000000000000000000000600052601260045260246000fd5b7f4e487b7100000000000000000000000000000000000000000000000000000000600052602260045260246000fd5b7f4e487b7100000000000000000000000000000000000000000000000000000000600052604160045260246000fd5b6000601f19601f8301169050919050565b7f547279696e6720746f207769746864726177206d6f7265206d6f6e657920746860008201527f616e2074686520636f6e7472616374206861732e000000000000000000000000602082015250565b7f4661696c656420746f207769746864726177206d6f6e65792066726f6d20636f60008201527f6e74726163742e00000000000000000000000000000000000000000000000000602082015250565b50565b7f576169742031356d000000000000000000000000000000000000000000000000600082015250565b6113ae816110fc565b81146113b957600080fd5b5056fe557365722025732068617320776176656420746f74616c6c792025642074696d657321a26469706673582212207bc0ee01b4f1c90a5761bdbe3501f4432d5613e9672b1eb67e82c3414b13f6e064736f6c63430008040033",
  "linkReferences": {},
  "deployedLinkReferences": {}
}